{
  "contractName": "CrowdSale",
  "abi": [
    {
      "inputs": [
        {
          "internalType": "uint256",
          "name": "rate",
          "type": "uint256"
        },
        {
          "internalType": "address payable",
          "name": "wallet",
          "type": "address"
        },
        {
          "internalType": "contract IERC20",
          "name": "token",
          "type": "address"
        }
      ],
      "stateMutability": "nonpayable",
      "type": "constructor"
    },
    {
      "anonymous": false,
      "inputs": [
        {
          "indexed": true,
          "internalType": "address",
          "name": "purchaser",
          "type": "address"
        },
        {
          "indexed": true,
          "internalType": "address",
          "name": "beneficiary",
          "type": "address"
        },
        {
          "indexed": false,
          "internalType": "uint256",
          "name": "value",
          "type": "uint256"
        },
        {
          "indexed": false,
          "internalType": "uint256",
          "name": "amount",
          "type": "uint256"
        }
      ],
      "name": "TokensPurchased",
      "type": "event"
    },
    {
      "inputs": [
        {
          "internalType": "address",
          "name": "beneficiary",
          "type": "address"
        },
        {
          "internalType": "address",
          "name": "purchaser",
          "type": "address"
        },
        {
          "internalType": "uint256",
          "name": "weiAmount",
          "type": "uint256"
        }
      ],
      "name": "purchaseToken",
      "outputs": [],
      "stateMutability": "payable",
      "type": "function"
    }
  ],
  "bytecode": "0x608060405234801561001057600080fd5b5060405161058f38038061058f8339818101604052606081101561003357600080fd5b810190808051906020019092919080519060200190929190805190602001909291905050508260018190555081600360006101000a81548173ffffffffffffffffffffffffffffffffffffffff021916908373ffffffffffffffffffffffffffffffffffffffff160217905550806000806101000a81548173ffffffffffffffffffffffffffffffffffffffff021916908373ffffffffffffffffffffffffffffffffffffffff16021790555050505061049d806100f26000396000f3fe60806040526004361061001e5760003560e01c8063130a7c6914610023575b600080fd5b61008f6004803603606081101561003957600080fd5b81019080803573ffffffffffffffffffffffffffffffffffffffff169060200190929190803573ffffffffffffffffffffffffffffffffffffffff16906020019092919080359060200190929190505050610091565b005b60008111610107576040517f08c379a000000000000000000000000000000000000000000000000000000000815260040180806020018281038252600b8152602001807f76616c7565206572726f7200000000000000000000000000000000000000000081525060200191505060405180910390fd5b6000610112826101ad565b90506101298260025461024f90919063ffffffff16565b60028190555061013a8482846102d7565b8373ffffffffffffffffffffffffffffffffffffffff168373ffffffffffffffffffffffffffffffffffffffff167f6faf93231a456e552dbc9961f58d9713ee4f2e69d15f1975b050ef0911053a7b8485604051808381526020018281526020019250505060405180910390a350505050565b600080821180156101c15750600060015414155b610233576040517f08c379a000000000000000000000000000000000000000000000000000000000815260040180806020018281038252600b8152602001807f636f756e74206572726f7200000000000000000000000000000000000000000081525060200191505060405180910390fd5b610248600154836103c090919063ffffffff16565b9050919050565b6000808284019050838110156102cd576040517f08c379a000000000000000000000000000000000000000000000000000000000815260040180806020018281038252601b8152602001807f536166654d6174683a206164646974696f6e206f766572666c6f77000000000081525060200191505060405180910390fd5b8091505092915050565b6000809054906101000a900473ffffffffffffffffffffffffffffffffffffffff1673ffffffffffffffffffffffffffffffffffffffff1663a9059cbb84846040518363ffffffff1660e01b8152600401808373ffffffffffffffffffffffffffffffffffffffff1673ffffffffffffffffffffffffffffffffffffffff16815260200182815260200192505050602060405180830381600087803b15801561037f57600080fd5b505af1158015610393573d6000803e3d6000fd5b505050506040513d60208110156103a957600080fd5b810190808051906020019092919050505050505050565b6000808314156103d35760009050610440565b60008284029050828482816103e457fe5b041461043b576040517f08c379a00000000000000000000000000000000000000000000000000000000081526004018080602001828103825260218152602001806104476021913960400191505060405180910390fd5b809150505b9291505056fe536166654d6174683a206d756c7469706c69636174696f6e206f766572666c6f77a2646970667358221220fff99c29a19bd7bbc716826de320e575f8eb70e9e9ea394086097839083c9aba64736f6c634300060a0033",
  "immutableReferences": {},
  "source": "// SPDX-License-Identifier: MIT\r\npragma solidity >=0.6.0 <0.8.0;\r\n\r\nimport \"openzeppelin-solidity/contracts/math/SafeMath.sol\";\r\nimport \"openzeppelin-solidity/contracts/token/ERC20/IERC20.sol\";\r\nimport \"openzeppelin-solidity/contracts/token/ERC20/SafeERC20.sol\";\r\nimport \"truffle/console.sol\";\r\n\r\ncontract CrowdSale {\r\n    using SafeMath for uint256;\r\n    // using SafeERC20 for IERC20;\r\n\r\n    IERC20 private _token;\r\n    uint256 private _rate;\r\n    uint256 private _weiRaised;\r\n    address payable private _wallet;\r\n\r\n    event TokensPurchased(\r\n        address indexed purchaser,\r\n        address indexed beneficiary,\r\n        uint256 value,\r\n        uint256 amount\r\n    );\r\n\r\n    constructor(uint256 rate, address payable wallet, IERC20 token) public {\r\n        _rate = rate;\r\n        _wallet = wallet;\r\n        _token = token;\r\n    }\r\n\r\n    function countTokens(uint256 amount) private view returns (uint256) {\r\n        require(amount > 0 && _rate != 0, \"count error\");\r\n        return amount.mul(_rate);\r\n    }\r\n\r\n    function purchaseToken(address beneficiary, address purchaser,  uint256 weiAmount) public payable {\r\n        // uint256 weiAmount = msg.value;\r\n\r\n        require(weiAmount > 0, \"value error\");\r\n        uint256 tokenAmount = countTokens(weiAmount);\r\n        _weiRaised = _weiRaised.add(weiAmount);\r\n        _processPurchase(beneficiary, tokenAmount, weiAmount);\r\n\r\n        emit TokensPurchased(purchaser, beneficiary, weiAmount, weiAmount);\r\n    }\r\n\r\n    function _processPurchase(address beneficiary, uint256 tokenAmount, uint256 weiAmount) private {\r\n        _token.transfer(beneficiary, tokenAmount);\r\n    }\r\n\r\n    // function toString(uint256 value) public pure returns (string memory) {\r\n    //     if (value == 0) {\r\n    //         return \"0\";\r\n    //     }\r\n    //     uint256 temp = value;\r\n    //     uint256 digits;\r\n    //     while (temp != 0) {\r\n    //         digits++;\r\n    //         temp /= 10;\r\n    //     }\r\n    //     bytes memory buffer = new bytes(digits);\r\n    //     while (value != 0) {\r\n    //         digits -= 1;\r\n    //         buffer[digits] = bytes1(uint8(48 + (value % 10)));\r\n    //         value /= 10;\r\n    //     }\r\n    //     return string(buffer);\r\n    // }\r\n}\r\n",
  "sourcePath": "D:\\projects\\blockchain\\my-ico\\src\\contracts\\CrowdSale.sol",
  "compiler": {
    "name": "solc",
    "version": "0.6.10+commit.00c0fcaf.Emscripten.clang"
  },
  "schemaVersion": "3.4.16",
  "updatedAt": "2024-06-14T08:34:55.392Z",
  "devdoc": {
    "methods": {}
  },
  "userdoc": {
    "methods": {}
  }
}